S00C0000504D494B2E73726563E7
S1130000EEC200000DC300000BC3000014C50000C5
S113001007C3000005C3000003C3000001C30000C0
S1130020FFC20000FDC20000FBC20000F9C20000D4
S1130030F7C200000C94EB27F3C20000F1C20000E9
S1130040EFC20000EDC20000EBC20000E9C20000F4
S1130050E7C200000C942222E3C20000E1C20000C7
S1130060DFC200000C941E290C94AB28D9C20000F6
S1130070D7C20000D5C20000D3C20000D1C2000024
S1130080CFC20000CDC20000CBC20000C9C2000034
S1130090C7C20000C5C20000C3C20000C1C2000044
S11300A0BFC20000BDC20000BBC20000B9C2000054
S11300B0B7C20000B5C20000B3C20000B1C2000064
S11300C0AFC20000ADC20000ABC20000A9C2000074
S11300D0A7C20000A5C20000A3C20000A1C2000084
S11300E09FC200009A20A12006210D21E221E221D5
S11300F0E221E221E221E22196219C21AD21BE21CF
S1130100D12141004200430044004500460047001D
S1130110480049004A004B004C004D004E004F007F
S1130120500051005200530054005500560057002F
S1130130580059005A002100E0FFE1FFE5FFE2FF0B
S1130140E3FFC000C100C200C300C400C500C60074
S1130150C700C800C900CA00CB00CC00CD00CE0047
S1130160CF00D000D100D200D300D400D500D600F7
S1130170D800D900DA00DB00DC00DD00DE00780105
S1130180000102010401060108010A010C010E012B
S1130190100112011401160118011A011C011E019B
S11301A0200122012401260128012A012C012E010B
S11301B0300132013401360139013B013D013F0177
S11301C041014301450147014A014C014E015001DF
S11301D052015401560158015A015C015E0160014B
S11301E062016401660168016A016C016E017001BB
S11301F072017401760179017B017D019101910302
S11302009203930394039503960397039803990326
S11302109A039B039C039D039E039F03A003A103D6
S1130220A303A403A503A603A703A803A903AA037E
S113023010041104120413041404150416041704FE
S1130240180419041A041B041C041D041E041F04AE
S1130250200421042204230424042504260427045E
S1130260280429042A042B042C042D042E042F040E
S11302700104020403040404050406040704080436
S113028009040A040B040C040E040F046021612108
S11302906221632164216521662167216821692126
S11302A06A216B216C216D216E216F2121FF22FFB8
S11302B023FF24FF25FF26FF27FF28FF29FF2AFF0E
S11302C02BFF2CFF2DFF2EFF2FFF30FF31FF32FFBE
S11302D033FF34FF35FF36FF37FF38FF39FF3AFF6E
S11302E0000061006200630064006500660067004E
S11302F0680069006A006B006C006D006E006F009E
S1130300700071007200730074007500760077004D
S1130310780079007A00A100A200A300A500AC0037
S1130320AF00E000E100E200E300E400E500E600E5
S1130330E700E800E900EA00EB00EC00ED00EE0065
S1130340EF00F000F100F200F300F400F500F60015
S1130350F800F900FA00FB00FC00FD00FE00FF00BD
S1130360010103010501070109010B010D010F0141
S1130370110113011501170119011B011D011F01B1
S1130380210123012501270129012B012D012F0121
S113039031013301350137013A013C013E0140018D
S11303A042014401460148014B014D014F015101F5
S11303B053015501570159015B015D015F01610161
S11303C063016501670169016B016D016F017101D1
S11303D07301750177017A017C017E019201B103F9
S11303E0B203B303B403B503B603B703B803B90345
S11303F0BA03BB03BC03BD03BE03BF03C003C103F5
S1130400C303C403C503C603C703C803C903CA039C
S1130410300431043204330434043504360437041C
S1130420380439043A043B043C043D043E043F04CC
S1130430400441044204430444044504460447047C
S1130440480449044A044B044C044D044E044F042C
S113045051045204530454045504560457045804D4
S113046059045A045B045C045E045F047021712126
S113047072217321742175217621772178217921C4
S11304807A217B217C217D217E217F2141FF42FF36
S113049043FF44FF45FF46FF47FF48FF49FF4AFF2C
S11304A04BFF4CFF4DFF4EFF4FFF50FF51FF52FFDC
S11304B053FF54FF55FF56FF57FF58FF59FF5AFF8C
S11304C00000C700FC00E900E200E4006F0107013E
S11304D0E7004201EB0050015101EE007901C40034
S11304E00601C90039013A01F400F6003D013E015C
S11304F05A015B01D600DC00640165014101D700AB
S11305000D01E100ED00F300FA00040105017D0195
S11305107E0118011901AC007A010C015F01AB00E6
S1130520BB0091259225932502252425C100C200F4
S11305301A015E016325512557255D257B017C0148
S11305401025142534252C251C2500253C250201C5
S113055003015A25542569256625602550256C25F7
S1130560A400110110010E01CB000F014701CD00C1
S1130570CE001B0118250C258825842562016E01F7
S11305808025D300DF00D400430144014801600109
S113059061015401DA0055017001FD00DD006301C1
S11305A0B400AD00DD02DB02C702D802A700F700E9
S11305B0B800B000A800D902710158015901A02562
S11305C0A0001B5B6D001B5B3F323568001B5B3F6B
S11305D032356C001B5B3B48001B5B324A00112424
S11305E01FBECFEFD1E2DEBFCDBF00E00CBF13E0F2
S11305F0A0E0B2E0EEE4F4E500E00BBF02C0079037
S11306000D92AC3BB107D9F72EE0ACEBB3E001C0DF
S11306101D92AB39B207E1F70E94E2230C94252A1C
S1130620EFCC9DEC899F912D1124969596959695E6
S113063020E1929FA0011124990F292F220F220F4C
S1130640920F891B842B0895982F92959F70990F70
S1130650292F220F220F920F8F70890F08959093E4
S1130660BD038093BC030895CF93DF931F92CDB74E
S1130670DEB785B7806285BFEA9A5A9A84E690E02D
S11306800E94492280E989839E012F5F3F4F41E008
S113069067E080ED0E94882220E030E041E060E0E5
S11306A080ED0E9488220F90DF91CF9108950F93DF
S11306B01F93CF93DF93EC01162F042F822FB1DF0A
S11306C08D8F802FAEDF8E8F812FABDF8F8F9E01BA
S11306D0235E3F4F43E060E080ED0E948822DF917B
S11306E0CF911F910F9108957F928F929F92AF9215
S11306F0BF92CF92DF92EF92FF920F931F93CF930B
S1130700DF93EC019C01235E3F4F47E060E080ED06
S11307100E94AF224E0123E0820E911C940142E01C
S113072068E080ED0E94AF226E0180E2C80ED11C09
S11307308E01075F1F4F5E016894EE24E1F8F12CEF
S11307400F2EFAE37F2EF02DF801D6018E916D0164
S11307509E2D923009F47CC08F7782958F70805DD6
S113076080838C918F70805D8183EE2009F47BC03F
S113077072828E8D69DFF50181935F010D5F1F4FDA
S1130780F1E0EF1AF10800F789A18F735DDF8E8322
S11307908BA15ADF4B815C8190E09A01282739278D
S11307A023703327232B89F04F5F5F4F9C0124274D
S11307B0352723703327232BB9F75C834B839401AC
S11307C042E068E080ED0E9488228AA18F713CDFBC
S11307D08D8388A18F838B819C818A30910520F041
S11307E0BE016E5E7F4F05C0BE016D5E7F4F20E38C
S11307F02A8B8436910528F480E3DB018C936F5FA8
S11308007F4F8B819C81883E934028F480E3FB01D9
S113081080836F5F7F4F4AE08B819C810E94EA292D
S11308202EE22E8B8AA184FB992790F9905D9F8BF1
S11308308F70805D888F298F89A1982F9F739295DF
S11308409F70905D9A8F8F70805D8B8F1C8E16C009
S11308508F7382958F70805D8083D6018C918F70A9
S1130860805D818385CF12828E010E191F090E5F70
S11308701F4F8E8DE9DEF801808386CFDF91CF9103
S11308801F910F91FF90EF90DF90CF90BF90AF90AA
S11308909F908F907F90089580910002882371F03B
S11308A086E29AE021DFE091BC03F091BD0330972A
S11308B019F086E29AE019951092000208950F93B8
S11308C01F93CF93C82FFA01862F90E009966CE00E
S11308D070E00E946D299C012F5F3F4F81E090E002
S11308E02B30310514F480E090E0E81BF90BCF01C4
S11308F064E670E00E946D298C014DE0429FC001C6
S1130900439F900D1124019765E070E00E946D29CA
S1130910CB01800F911F9801112314F42D5F3F4FD9
S11309203595279535952795280F391FCF0164E60E
S113093070E00E946D29CB01880F991F860F971FC5
S1130940880F991F820F931F8C0F911D059627E026
S113095030E0B9010E946D290796B9010E946D2902
S1130960CF911F910F910895AC018536910598F0B0
S11309709C013695279536952795ABE7B4E10E94FF
S1130980AA2996958795342F24E6829F301911243D
S1130990832F47CE089545CE0895EF92FF920F938B
S11309A01F93CF93DF931F921F92CDB7DEB78C01B5
S11309B0572F7A836983F42EE22E462F6F2D822FD0
S11309C07EDFF80180A38E2D2CDEF80181A38F2D0C
S11309D028DEF80182A389819A81C6DFF80183A306
S11309E09801205E3F4F44E063E080ED0E9488223E
S11309F09E012F5F3F4F42E068E080ED0E94882215
S1130A000F900F90DF91CF911F910F91FF90EF9076
S1130A100895CF92EF920F93CF93DF93EC01BDDF54
S1130A202C2D4E2D602FCE0142DEDF91CF910F9100
S1130A30EF90CF9008951F920F920FB60F9211244A
S1130A408F9381E0809300028F910F900FBE0F90DF
S1130A501F9018958038910590F1672B41F4E2ECD2
S1130A60F4E0259134918217930771F41FC08F3FEE
S1130A70910509F010F5FC01EE0FFF1FEE53FC4F3A
S1130A8025913491C901089544EC54E021E030E00B
S1130A90FA01659174918617970751F02F5F3F4FC4
S1130AA04E5F5F4F2038310599F702C020E030E0F7
S1130AB020583F4FC9019927089580E090E0089598
S1130AC022EE32E0F90145915491452BE1F0F90110
S1130AD04591549184179507C9F024EE32E040E023
S1130AE050E001C09F014F5F5F4FF9016591749120
S1130AF0672B71F0F90165917491F90132966817C9
S1130B00790781F705C040E050E002C040E050E0C2
S1130B10F90125913491232B39F0FA01EE0FFF1FCF
S1130B20EE5FFE4F859194910895FC016381862FB9
S1130B3090E0A0E0B0E0BA2FA92F982F8827228157
S1130B40822BBA2FA92F982F88272181822BBA2F85
S1130B50A92F982F88272081BC01CD01622B0895ED
S1130B604115510551F0A62FB72FFC01480F591F0D
S1130B709D919193E417F507D9F708950F931F9367
S1130B80FC019A01AB0122503109410951098589BF
S1130B909689A789B08D0297A109B1092817390749
S1130BA04A075B0768F4A185B2850E94B92901A5AB
S1130BB012A523A534A5600F711F821F931F03C0C4
S1130BC060E070E0CB011F910F910895FC019C013E
S1130BD0255F3F4F80E080FB879587F99191890FCE
S1130BE0E217F307C1F70895CF93DF93EC01A881CF
S1130BF0B9811097F9F04C91403258F04A3331F1F1
S1130C00FD0131969F019191903228F09A33D1F7EA
S1130C1004C0942F9D019A3381F4CD0101962817C5
S1130C20390771F4403379F41296B983A88380E0CC
S1130C3090E00EC08FEF9FEF0BC080E090E008C003
S1130C408FEF9FEF05C08FEF9FEF02C09D01E5CFAF
S1130C50DF91CF9108950F931F93CF93DF93EC010E
S1130C608B01892B99F0E881F981309779F08081A3
S1130C70882361F0258136818A819B812817390771
S1130C8029F481810E94AB1F80FF05C0F801118205
S1130C90108289E006C088819981F801918380835C
S1130CA080E0DF91CF911F910F9108958F929F92D1
S1130CB0AF92BF92CF92DF92EF92FF920F93CF93B6
S1130CC0DF93FC012381222309F444C0EC01C5A471
S1130CD0D6A4E7A4F0A84C01F1E38F0E911C01E027
S1130CE0A7019601B40189810E94FF1F811134C0BC
S1130CF01B8289A19AA1ABA1BCA1B701A601481B83
S1130D00590B6A0B7B0B898D9A8DAB8DBC8D481763
S1130D1059076A077B0710F5AA80B12C82E0A81650
S1130D20B104F0F0898D9A8DAB8DBC8DC80ED91E9F
S1130D30EA1EFB1E01E0A7019601B40189810E940D
S1130D40FF1FE1E0AE1AB108F1E0AF16B10451F7AC
S1130D5080E007C080E005C081E003C080E001C0FE
S1130D6080E0DF91CF910F91FF90EF90DF90CF90D3
S1130D70BF90AF909F908F900895CF92DF92EF92A3
S1130D80FF920F931F93CF93DF93EC016A017B01D2
S1130D908DA59EA5AFA5B8A984179507A607B70783
S1130DA0D1F0CE0183DF182F811116C001E0A70115
S1130DB09601BE016F5C7F4F89810E94B21F882318
S1130DC029F011E0CC24CA94DC2C7601CDA6DEA651
S1130DD0EFA6F8AA01C010E0812FDF91CF911F91F7
S1130DE00F91FF90EF90DF90CF9008950F93CF93E2
S1130DF0DF93EC015BDF982F811160C08881833021
S1130E0009F052C08C81813009F04EC0BE016F5C84
S1130E107F4FFB01CE018F5C9D4F1192E817F907BC
S1130E20E1F785E5FE01E15DFD4F80838AEA3196B5
S1130E30808382E589AB8AAB81E68BAB91E49CAB82
S1130E4022E77B97208331962083319690833196D5
S1130E50808339892A899B898C893196308331969C
S1130E60208331969083319680833D852E859F859E
S1130E7088893196308331962083319690833196D8
S1130E8080838D8D9E8DAF8DB8A19C01AD012F5FA8
S1130E903F4F4F4F5F4F2DA73EA74FA758AB01E0E1
S1130EA089810E94FF1F1C8240E050E060E089813C
S1130EB00E94642091E0811101C090E0892FDF91AC
S1130EC0CF910F9108952F923F924F925F926F921C
S1130ED07F928F929F92AF92BF92CF92DF92EF92C6
S1130EE0FF920F931F93CF93DF9342305105610517
S1130EF0710508F4CCC0FC01C588D688E788F08C5D
S1130F004C155D056E057F0508F0C3C02801390145
S1130F106A017B01EC018081823009F461C0833075
S1130F2009F47EC0813009F0B6C05A01B694A79482
S1130F30A40EB51EC501892F9927869541A152A1FA
S1130F4063A174A1480F591F611D711DCF0115DFE5
S1130F50182F8111C0C01E01F1E32F0E311C450171
S1130F602FEF821A920A31E0B322F101EA0DFB1D40
S1130F70C0FE1DC08081282F2F7030E1439EC00128
S1130F801124822B808381E08B8349A15AA16BA118
S1130F907CA1C401892F99278695480F591F611D8B
S1130FA0711DCE01EADE882309F47BC076C040823D
S1130FB081E08B8349A15AA16BA17CA1C401892F33
S1130FC099278695480F591F611D711DCE01D5DEE5
S1130FD0882309F474C063C0408281E08B837BC0A2
S1130FE0452F562F672F772781A192A1A3A1B4A1E2
S1130FF0480F591F6A1F7B1FCF01BFDE182F8111B5
S11310006AC0FE01F196CC0CDD1CE894C0F881E0C6
S1131010D822EC0DFD1D4082518281E08B835BC0A0
S113102081A192A1A3A1B4A1689416F876956795BD
S1131030579547951694D1F7480F591F6A1F7B1F80
S1131040CF019BDE182F811146C0EFE07E22CE0136
S1131050C196CC0CDD1CCC0CDD1CFCEFCF22F1E0E6
S1131060DF22C80ED91EC60160DDDC01CB01882752
S11310709927AA27B07F482A592A6A2A7B2AF60187
S1131080408251826282738281E08B8324C012E0A9
S113109022C012E020C012E01EC0182F1CC0182F5E
S11310A01AC0F1E09F22F101E80DF91D689413F8CC
S11310B076946794579447941694D1F78DCF21E092
S11310C09222F101E80DF91D9081907F852D8F709A
S11310D0492E482A81CF812FDF91CF911F910F9103
S11310E0FF90EF90DF90CF90BF90AF909F908F9044
S11310F07F906F905F904F903F902F900895FB01E9
S1131100228F338FDC018C91833029F4CA01AA2702
S1131110BB27848B958B0895AF92BF92CF92DF92B9
S1131120EF92FF920F931F93CF93DF9342305105B9
S11311306105710508F4A1C0FC01C081D1818D89CC
S11311409E89AF89B88D481759076A077B0708F04D
S113115099C06A017B018881823009F44BC08330D5
S113116009F469C0813009F092C08A011695079587
S1131170040F151FC801892F9927869549A15AA1E3
S11311806BA17CA1480F591F611D711DCE01F5DDB6
S1131190811182C05801FFEFAF1ABF0A1170FE011E
S11311A0E00FF11F11A9C501892F9927869549A13F
S11311B05AA16BA17CA1480F591F611D711DCE015D
S11311C0DCDD81116DC081E0B822CA0DDB1D89A967
S11311D0612F70E0782BC0FE09C0729562956F7024
S11311E067277F70672780E090E065C07F7080E0AC
S11311F090E061C0452F562F672F772789A19AA1C8
S1131200ABA1BCA1480F591F6A1F7B1FCE01B5DDDE
S113121081114AC0E196A601440F551F4E7F5170BB
S1131220C40FD51F698170E0762F66278881682BEB
S113123080E090E040C089A19AA1ABA1BCA16894D0
S113124016F876956795579547951694D1F7480FF4
S1131250591F6A1F7B1FCE0190DD811129C0E196C1
S1131260A601440F551F440F551FCA018C7F91706E
S11312708C0F9D1F5ADC9F701EC061E070E080E0FF
S113128090E019C061E070E080E090E014C061E09B
S113129070E080E090E00FC06FEF7FEFCB010BC0F8
S11312A06FEF7FEFCB0107C06FEF7FEFCB0103C080
S11312B06FEF7FEFCB01DF91CF911F910F91FF90E3
S11312C0EF90DF90CF90BF90AF9008954F925F92D0
S11312D06F927F928F929F92AF92BF92CF92DF9242
S11312E0EF92FF920F931F93CF93DF93EC016A0168
S11312F07B014115510580E26807710508F0B1C012
S1131300DB01CA018F719927AA27BB27892B8A2B56
S11313108B2B09F0A8C0088119814E875F87688BE1
S1131320798B8E809F80A884B98481149104A10450
S1131330B10461F5F8018081833040F085A196A164
S1131340A7A1B0A50097A105B105F1F4F801878123
S11313509085A0E0B0E0B701A601689414F87695F2
S11313606795579547951694D1F7481759076A0713
S11313707B0708F07AC085A196A1A7A1B0A58E8BA2
S11313809F8BA88FB98F44C04C015D01F801418443
S11313905284612C712C032E39E0440C551C661CBC
S11313A0771C3A95D1F7302DC414D504E604F7041C
S11313B038F1B501A401CE01AFDE4B015C016F3FF2
S11313C07F4F8F4F9F4F09F452C082E088169104DB
S11313D0A104B10408F44DC0F80185899689A78950
S11313E0B08D88169906AA06BB0608F044C0C41836
S11313F0D508E608F708C414D504E604F704C8F6CB
S1131400B501A401C801BADB6E8B7F8B888F998FDD
S11314108A8A9B8AAC8ABD8A8E899F89A88DB98D58
S11314200097A105B10549F1B701A601032E39E0E2
S113143076956795579547953A95D1F7302D840F52
S1131440951FA61FB71F8E8B9F8BA88FB98F0F5C1C
S11314501F4FF1E0DF22C00ED11EDB8ECA8E80E06A
S11314600DC082E00BC082E009C082E007C081E0C9
S113147005C082E003C082E001C082E0DF91CF9129
S11314801F910F91FF90EF90DF90CF90BF90AF909E
S11314909F908F907F906F905F904F9008954F92A0
S11314A05F926F927F928F929F92AF92BF92CF92F0
S11314B0DF92EF92FF920F931F93CF93DF938C01F0
S11314C02A013B01FC01C081D1814115510561050F
S11314D07105B9F48D849E84AF84B8888114910415
S11314E0A104B10451F18D899E89AF89B88D881604
S11314F09906AA06BB0628F1812C912C54018394E9
S113150020C00ADE6B017C01623071058105910502
S113151008F48FC06F3F7F4F8F4F9F4F09F48EC0E9
S11315208D899E89AF89B88DC816D906EA06FB064F
S113153008F489C05301420104C0812C912C540148
S11315408394750164018FEFC81AD80AE80AF80A6F
S11315508D899E89AF89B88DC816D906EA06FB061F
S113156060F0E2E08E169104A104B10408F470C0A6
S1131570C12CD12C76016894C1F8B701A601C80129
S1131580CBDD611571058105910591F0613071051F
S11315908105910509F461C06F3F7F4F8F4F9F4FC5
S11315A009F460C0C814D904EA04FB0461F65FC0FE
S11315B00FEF1FEF9801B701A601CE0184DC811162
S11315C031C0411451046104710441F09701860152
S11315D0B301A201CE0177DC811124C0CD86DE8661
S11315E0EF86F88A89899A89AB89BC894D895E8995
S11315F06F89788D4250510961097109481759075B
S11316006A077B0738F00197A109B109898B9A8B86
S1131610AB8BBC8B8C8181608C836C2D7D2D8E2D4E
S11316209F2D2EC0813041F161E070E080E090E0B8
S113163027C061E070E080E090E022C06FEF7FEFB0
S11316408FEF9FEF1DC06C2D7D2D8E2D9F2D18C00B
S113165060E070E080E090E013C061E070E080E062
S113166090E00EC06FEF7FEF8FEF9FEF09C060E057
S113167070E080E090E004C06FEF7FEF8FEF9FEFAA
S1131680DF91CF911F910F91FF90EF90DF90CF905A
S1131690BF90AF909F908F907F906F905F904F908E
S11316A008954F925F926F927F92AF92BF92CF92C2
S11316B0DF92EF92FF920F931F93CF93DF935C011E
S11316C06A017B01B901A80122E0C216D104E10438
S11316D0F10408F460C0FC01C081D1818D899E8928
S11316E0AF89B88DC816D906EA06FB0608F055C0BE
S11316F0411551056105710539F00FEF1FEF980190
S1131700CE01E1DB811150C0B701A601C50104DDA2
S11317102B013C01611571058105910509F43FC058
S11317206130710581059105E1F16F3F7F4F8F4F66
S11317309F4FC9F100E010E09801B701A601CE0166
S1131740C2DB811131C089899A89AB89BC894D89F1
S11317505E896F89788D6A017B01E2E0CE1AD10837
S1131760E108F1088C159D05AE05BF0550F40196FE
S1131770A11DB11D898B9A8BAB8BBC8B8C81816035
S11317808C8373016201441655066606770608F4D5
S1131790BBCF80E009C082E007C082E005C080E0E2
S11317A003C082E001C081E0DF91CF911F910F91CE
S11317B0FF90EF90DF90CF90BF90AF907F906F90AD
S11317C05F904F9008954F925F926F927F929F9295
S11317D0AF92BF92CF92DF92EF92FF920F931F933B
S11317E0CF93DF938B01FC0146895789608D718DFE
S11317F0411551056105710509F4FCC0C684D784FF
S1131800E088F188F0E2CF0ED11CE11CF11CC11478
S1131810D10420E2E206F10408F0EEC0EC01A88055
S1131820B980D701C6019170AA27BB27892B8A2BBF
S11318308B2B09F0D0C04F5F5F4F6F4F7F4F4E8BA4
S11318405F8B688F798F4A895B896C897D894115A3
S1131850510561057105D9F4F50187819085A0E0F2
S1131860B0E0B701A601689414F87695679557958A
S113187047951694D1F7481759076A077B0708F468
S1131880AAC01E8A1F8A188E198E84E0C4C0F5016E
S1131890818592850197A0E0B0E026013701032EEF
S11318A039E076946794579447943A95D1F7302D5C
S11318B084219521A621B721892B8A2B8B2B09F012
S11318C08AC0CE0129DC2B013C01623071058105FF
S11318D0910508F493C06F3F7F4F8F4F9F4F09F4DA
S11318E08FC0F50185899689A789B08D4816590658
S11318F06A067B0608F463C0012B31F41E8A1F8A32
S1131900188E198E84E087C04A895B896C897D8929
S1131910CE01C5DD2B013C016115710581059105E1
S113192009F470C0613071058105910509F46CC03A
S11319306F3F7F4F8F4F9F4F09F468C0C501B6D9E1
S1131940811166C0F501F196C5018F5C9D4F11921E
S1131950E817F907E1F7B301A201C5010FD9F501B1
S113196065A776A787A790AB00E010E0992493942D
S113197014C0F5019382C50199D981114BC00F5F41
S11319801F4FF50185A596A5A7A5B0A90196A11D90
S1131990B11D85A796A7A7A7B0ABF5018185928550
S11319A00817190730F385A596A5A7A5B0A9801B2C
S11319B0910BA109B10985A796A7A7A7B0AB4A8A3D
S11319C05B8A6C8A7D8AB301A201C501D7D86E8B6C
S11319D07F8B888F998FCE86DF86E88AF98AF1E338
S11319E0AF0EB11C21E0D222CA0CDB1CDB8ECA8EE6
S11319F080E011C084E00FC084E00DC082E00BC021
S1131A0081E009C087E007C082E005C081E003C02F
S1131A1081E001C081E0DF91CF911F910F91FF9090
S1131A20EF90DF90CF90BF90AF909F907F906F909A
S1131A305F904F9008952F923F924F925F926F92D2
S1131A407F928F929F92AF92BF92CF92DF92EF924A
S1131A50FF920F931F93CF93DF93CDB7DEB72C97ED
S1131A600FB6F894DEBF0FBECDBF9C878B87DC0119
S1131A70ED90FC9040E050E0BA0128DC811133C1C4
S1131A808FEF9FEFDC01EB85FC8580A791A7A2A7D0
S1131A90B3A7CC24CA9455245A9488248A94982CA5
S1131AA05401DD24DA940F2EFFE16F2EF2E07F2E35
S1131AB0F02DAB85BC8556964D915D916D917C91D1
S1131AC05997C7015AD981110EC1EB85FC85028D46
S1131AD0138DD8013C90332009F4F7C01B968C91E8
S1131AE0982F9F739483B5EE3B1621F083FF0AC0B1
S1131AF09F3059F0EB85FC8580A691A6A2A6B3A6DB
S1131B005D2CDAC09F3009F0A5C0AB85BC859796E3
S1131B108C91979786FDD0C036FE12C0F801C5841B
S1131B20F32DFF7B3F2E1E968D919D910D90BC91C0
S1131B30A02DEB85FC8580A791A7A2A7B3A702C01F
S1131B405310B7C0D8011D962C901D972C10B3C00C
S1131B505B968C915B9790E0982F88275A962C91EE
S1131B605A97822B892B09F0BBC0F7010384F485B3
S1131B70E02DFA87E9878C918F7390E001974DE00F
S1131B80489F9001499F300D11243C832B830F2ED5
S1131B90F2E14F2EF2E05F2EF02D21E030E0D20191
S1131BA08D912D01F801E80FF11D818190E0982FAE
S1131BB088274081FC01E42BFA83E9832115310550
S1131BC051F12B813C812F3F310508F089C0CF01B1
S1131BD00E9460059E838D836B817C816F5F7F4F44
S1131BE078876F83EB81FC81EE0FFF1F89859A85CF
S1131BF0E80FF91F808191810E946005AD81BE814B
S1131C00A817B90709F06CC029813A81EF81F885DA
S1131C10FC83EB8306C069817A816F3F7F4F09F0B3
S1131C205FC06414750409F0BACFD8018C9186FFA3
S1131C3052C0232B09F44FC0EB81FC81EE0FFF1F30
S1131C4029853A85E20FF31F80819181892B09F45C
S1131C5042C046C0511005C0C8010E94E605C8161E
S1131C60B1F1AB85BC8597968C91979780FD19C08F
S1131C70F801219130E05C968C915C97281B310926
S1131C805D96055F1F4F08C021918D9130E0281BA0
S1131C9031090E171F0719F0232BB1F302C0232BB0
S1131CA0C1F0EB85FC8580A691A6A2A6B3A65D2C07
S1131CB003C05D2C01C05D2C60E070E08B859C85C9
S1131CC082DD882309F4F5CE0EC084E00CC080E0E8
S1131CD00AC080E008C055245A94530CC22CECCF9F
S1131CE0C22C5D2CE9CF2C960FB6F894DEBF0FBE44
S1131CF0CDBFDF91CF911F910F91FF90EF90DF90B7
S1131D00CF90BF90AF909F908F907F906F905F9097
S1131D104F903F902F9008952F923F924F925F9251
S1131D206F927F928F929F92AF92BF92CF92DF92E7
S1131D30EF92FF920F931F93CF93DF93CDB7DEB74C
S1131D406C970FB6F894DEBF0FBECDBFDC0197963B
S1131D509C919797907A09F0FEC12D903C90119731
S1131D60F10123853485F90180819181892B59F012
S1131D703296C12CD12C2FEFC21AD20A81919191A3
S1131D80892BC9F702C0C12CD12C8D01CD014C96F1
S1131D909E8B8D8B4CE050E0BC01CE0101960E94DD
S1131DA0B0058C8580FFCEC080E4D80197968C93D3
S1131DB04BE050E0BE016F5F7F4F8D899E890E948A
S1131DC0B005412C512C3201689441F8EE24E3947F
S1131DD0F12C41E050E0498E5A8E6B8E7C8E48C0C7
S1131DE0F101838494844BE050E0BE016F5F7F4F28
S1131DF08D899E890E94B005F6E0EF16F10460F12A
S1131E00E82DF92D498D5A8D6B8D7C8D20C020E1F4
S1131E1030E04A015B01880C991CAA1CBB1CBC0164
S1131E206170772724013501460E571E611C711C11
S1131E30B301A2019695879560FE06C0A1E24A27E8
S1131E40A0E15A27A1E06A272150310911F78191B5
S1131E5091910097E1F601C0A701898D9A8DAB8D10
S1131E60BC8D0196A11DB11D898F9A8FAB8FBC8F3C
S1131E70FE01759627E030E0942F9F7080E3890F70
S1131E808A3310F087E3890F2150310982935295E8
S1131E9042954F7045275F7045274115510561F7FD
S1131EA0EDE0F0E0EC0FFD1FE20FF31F9EE79083DF
S1131EB02115310589F0D8015C968C91803279F036
S1131EC0F8017D9680E090E001962817390749F0E3
S1131ED041914032C9F705C080E090E002C080E043
S1131EE090E0ED89FE89E80FF91F0196283031054D
S1131EF050F4ADE0B0E0AC0FBD1FA20FB31F4C9186
S1131F002F5F3F4F01C040E241938830910568F351
S1131F10C80191DD81110AC0BFEFEB1AFB0AE4E6A8
S1131F20EE16F10409F05CCF87E038C1F4E6EF1651
S1131F30F10409F412C1843009F030C18C85D80150
S1131F4097968C938C8581FF10C09601245F3F4F38
S1131F50A5ECBEE40E94AA29969587959695879547
S1131F606C01BFEFCB1ADB0A03C0CC24C394D12C81
S1131F70F8018080918040E050E0BA01C801A6D900
S1131F80811103C1E12CF12CD80156964D915D913C
S1131F906D917C915997C4010E94BD068111F5C0D1
S1131FA0D8015A96ED91FC915B978081853E11F0A2
S1131FB0811107C0BFEFEB1AFB0ACE14DF0419F43A
S1131FC0E7C0E12CF12C61E070E0C801FCDB882360
S1131FD0D9F2DBC0F8014685578560897189C4014F
S1131FE0880F991F82959295907F9827807F9827D4
S1131FF0481B590B61097109C80168D98111CEC008
S11320008D899E890E94E605B82E0F2EFFE1EF2EE2
S1132010F2E0FF2EF02D412C512CCC24CA947724CD
S11320207A9466246A94AA24A394D80156964D916E
S11320305D916D917C915997C1010E94BD068111FA
S1132040ADC0D82CF801A28DB38DF10163857485E0
S11320501D96BC921D97FFE01B96FC931B971C9644
S11320601C921C975A961C925A975B961C925B97EB
S1132070C401992701974DE0489F9001499F300D75
S11320801124E2E1F2E0842D952DB88FAF8B8F3FC0
S1132090AFEF9A0709F465C0A9014F5F5F4F220FA4
S11320A0331F260F371FD9018D919C912081AF8951
S11320B0B88DA20FB11D8C9311969C93009721F4B7
S11320C09A01872D962D01C09A013196EE15FF05D0
S11320D0F1F6AF89B88D019649F0220F331FFB0149
S11320E0E20FF31F80819181892B19F4FD2DF06497
S11320F0DF2EDC92D1011396AC92642D752DC801AC
S113210062DB81114BC0B1E08B1A910809F08DCFCD
S113211031C0D8015A96ED91FC915B97CF0180961E
S11321201192E817F907E1F74BE050E06D897E89D9
S1132130F801828D938D0E94B005D8015A96ED91D5
S1132140FC915B9797968C918871848781E0F1016B
S1132150838380E023C086E021C087E01FC087E03E
S11321601DC04081AF89B88DA40FB11DCC921196CA
S1132170CC92ABCFF80146895789608D718DC1012E
S11321800E94BD06882329F209C0843041F306C0A9
S11321904601F1E08F1A910869F31CCF6C960FB6D3
S11321A0F894DEBF0FBECDBFDF91CF911F910F9189
S11321B0FF90EF90DF90CF90BF90AF909F908F9063
S11321C07F906F905F904F903F902F900895CF93A2
S11321D0DF93EC011B828FEF9FEFDC018DA79EA79D
S11321E0AFA7B8ABCE010E94BD0681112EC0FE017F
S11321F0E05DFD4F808190E0982F88273197208102
S1132200822B85359A4A19F589A9893E29F08B3E96
S113221001F58BA98039F9F4CE0189599F4F0E94A9
S11322209505DC01CB01BB2786349144A445B10557
S1132230A1F0CE018D579F4F0E94950566347144DD
S11322408445934361F082E00BC084E009C083E0DD
S113225007C082E005C082E003C080E001C080E0E6
S1132260DF91CF9108952F923F924F925F926F9298
S11322707F928F929F92AF92BF92CF92DF92EF9212
S1132280FF920F931F93CF93DF93CDB7DEB76E9773
S11322900FB6F894DEBF0FBECDBF6B01B42EDB01C9
S11322A01D921C920E94F4057C0199230CF43EC2F9
S11322B0FC01EE0FFF1FE054FA4F0081118101155C
S11322C0110509F435C2F60111830083FB2DFE7F4D
S11322D0BF2ED8018C91882369F011968C910E94AD
S11322E0AB1F80FD07C0BB2009F424C282FF24C2B7
S11322F08AE0E9C2F8011082E1828E2D0E94E31E79
S113230080FD1CC2BB2009F43FC282FD19C23CC23D
S1132310F70134978081882321F0C7010E94950535
S113232004C0642D752D862D972DD6016D937D9354
S11323308D939D936D01B0E1EB0EF11CE814F9044B
S113234039F74E01E1E18E0E911C0F2EF3E07F2E42
S1132350F02DD501CD90DD90ED90FD905D01C1147F
S1132360D104E104F10439F0B701A601C8012FDF5B
S1132370823010F425C2872DA814B90451F703C084
S1132380C12CD12C7601843009F4DCC1823008F0F0
S1132390DBC1F80185AD90E0982F882724AD822B0E
S11323A08115924009F0D2C1F801E85BFF4F4080EB
S11323B0512C542C442431978081482A612C712C4F
S11323C0411451046104710439F4C8018B5A9F4FBC
S11323D00E9495052B013C01D80159964D925D92BE
S11323E06D927C925C97F801EF5BFF4FB081B98BE3
S11323F0F801B2838B2F8150823008F0A9C136AD29
S11324003E8F832F90E092878187009709F4A2C1C1
S11324109C012150310982239323892B09F09CC10B
S1132420ED5BFF4F808190E0982F882731972081C2
S11324301C01222AD80118963C922E921797C101AA
S11324408F709927892B09F089C133968080912C4C
S1132450982C882431978081882AA12CB12C81144E
S11324609104A104B10439F4C8018F5A9F4F0E940A
S113247095054B015C01F801E05CFF4FE081F0E061
S1132480FE2FEE27D801DF968C91E82B309709F4C4
S113249067C12989A22FB0E0A30192010E94B92942
S11324A06E8B7F8B888F998FCF01A0E0B0E08A8FED
S11324B09B8FAC8FBD8FC101929582958F708927B8
S11324C09F7089272A8D3B8D4C8D5D8D280F391F78
S11324D0411D511DDA01C9012E893F89488D598D4D
S11324E0280F391F4A1F5B1F2A8B3B8B4C8B5D8B3C
S11324F082169306A406B50608F434C1C501B401D6
S1132500621B730B840B950BAE8D2A2F30E040E0D9
S113251050E00E948029DA01C901211531054105E5
S1132520510509F421C1263FEFEF3E07410551054E
S113253018F4F2E0F98B02C063E0698B863F9F4098
S1132540A105B10508F440C149015A01F2E08F0E1A
S1132550911CA11CB11CD80155968D929D92AD92EF
S1132560BC925897F801C58ED68EE78EF0A28A8D5C
S11325709B8DAC8DBD8D8C0D9D1DAE1DBF1D81A38E
S113258092A3A3A3B4A34A895B896C897D894C0D6A
S11325905D1D6E1D7F1D41A752A763A774A7F9890E
S11325A0F330D1F5F801E45AFF4F808190E0982F81
S11325B0882731972081822B892B09F0D7C02328C3
S11325C009F0D6C0C801835A9F4F0E949505D801CF
S11325D095966D937D938D939C939897880C991CF5
S11325E0AA1CBB1C880C991CAA1CBB1CBFEF8B0E1D
S11325F0B1E09B1EA11CB11C072E79E0B694A794F0
S1132600979487947A95D1F7702D481459046A04E5
S11326107B0408F4AFC02CC1232809F4ADC02E8973
S11326203F89488D598D820F931FA41FB51FF80150
S113263085A396A3A7A3B0A7F989F23029F4880C3F
S1132640991CAA1CBB1CFEC0A3E0B0E0A501940128
S11326500E94B929DC01CB01B695A795979587957A
S113266021E082229924AA24BB24880E991EAA1E42
S1132670BB1EE8C0B701A6014F5F5F4F6F4F7F4F8E
S1132680C8010E94BD06811139C0D80114961C925C
S1132690F801E05DFD4F808190E0982F8827319705
S11326A02081822B85359A4A49F5C801C1960E943A
S11326B09505623572458146914401F5C8018B5EEA
S11326C09D4F0E9495056237724781449146B1F44B
S11326D0C801875E9D4F0E949505D80151966D9360
S11326E07D938D939C935497C801835E9D4F0E9464
S11326F09505F801658776878787908BE989D801E6
S1132700EC938091BE059091BF0501969093BF050F
S11327108093BE0516969C938E9315978EEB93E04B
S11327201C969C938E931B9780E0CDC08BE0CBC00E
S11327308CE0C9C080E0C7C080E0C5C083E0C3C0EE
S11327408AE0C1C081E0BFC08DE0BDC08DE0BBC0E8
S11327508DE0B9C08DE0B7C08DE0B5C08DE0B3C0E9
S11327608DE0B1C08DE0AFC08DE0ADC08DE0ABC0F9
S11327708DE0A9C08DE0A7C08DE0A5C081E0A3C015
S11327808DE0A1C08DE09FC040E050E0BA01C801D7
S11327901EDD823009F0F4CD9E012F5F3F4F5901B9
S11327A0780139E0E31A3EEFF30A480149EC841A50
S11327B04DEF940A6501412C512C612C712CA8CD4C
S11327C0843009F0E6CDDACF49015A0162E0860E81
S11327D0911CA11CB11CD80155968D929D92AD926D
S11327E0BC925897F801C58ED68EE78EF0A28A8DDA
S11327F09B8DAC8DBD8D8C0D9D1DAE1DBF1D81A30C
S113280092A3A3A3B4A32A893B894C895D89C20EF0
S1132810D31EE41EF51EC1A6D2A6E3A6F4A6232861
S113282009F4AECF40C08FEF9FEFDC01F801818B3C
S1132830928BA38BB48B85879687A787B08B80E810
S113284084835CCFFFEF8F0EF1E09F1EA11CB11CAF
S1132850072E79E0B694A794979487947A95D1F744
S1132860702D481459046A047B0408F48BCFDBCF21
S11328708FEF9FEFDC01F801818B928BA38BB48BDC
S113288085879687A787B08B80E88483EE59FF4FAE
S1132890808190E0982F882731972081822B01979F
S11328A009F02CCFE7CE2E893F89488D598D820FB0
S11328B0931FA41FB51FF80185A396A3A7A3B0A7D0
S11328C0F1E0F98BC1CE6E960FB6F894DEBF0FBE61
S11328D0CDBFDF91CF911F910F91FF90EF90DF90CB
S11328E0CF90BF90AF909F908F907F906F905F90AC
S11328F04F903F902F9008950F931F93DC01FB019D
S1132900938D692F70E0762F6627828D682B80E087
S113291090E02C91233079F4058910E0102F0027E2
S11329202489022B20E030E0980111270027602B36
S1132930712B822B932B1F910F9108952F923F920D
S11329404F925F926F927F928F929F92AF92BF92BB
S1132950CF92DF92EF92FF920F931F93CF93DF9367
S1132960CDB7DEB72C970FB6F894DEBF0FBECDBF40
S11329706C01DC010D90BC91A02DBC83AB83E62FD0
S1132980F72F3F0181918F32E1F38C35D1F3F601BA
S11329901682178210861186D3018C91803248F4F6
S11329A080E887A340E050E0BA01C6010E946609AE
S11329B0E1C12601B7E24B0E511C6894222425F88C
S11329C06894332433F8EBE0EF83188639861A864B
S11329D08B809C80F1E38F0E911CD601ED91FC91CC
S11329E0A384B484F301808190E08032910508F4DB
S11329F091C18F329105A1F08C359105B1F085011B
S1132A0093012F5F3F4FEE24E394F12C3A83298303
S1132A1022C08F32910569F08C359105B1F409C05B
S1132A20E12CF12C21E030E004C0E12CF12C21E078
S1132A3030E0F301E20FF31F02C02F5F3F4F4191DB
S1132A404F32D9F34C35C9F331C0211541E0340775
S1132A5009F483C1790161E070E00E942A050097BE
S1132A6009F47BC18038910578F4AC018232910578
S1132A7009F432C1E3E0F2E02191222329F030E0AD
S1132A8042175307C9F728C1D8018D939D938D012F
S1132A9097012F5F3F4FE981FA818191FA83E9839E
S1132AA090E08032910508F0B4CF38C1620E731EF5
S1132AB0809710F010E001C014E0E114F10409F46F
S1132AC031C1F701EE0FFF1FEA0DFB1D92918291B8
S1132AD08032910511F08E9729F421E0E21AF10871
S1132AE0A9F720C1A701440F551FF501E40FF51FF5
S1132AF011821082E114F10409F42FC1F6017C96CD
S1132B002192E415F505E1F7F50180E090E001C0BC
S1132B1001962191319120323105D1F32E323105C4
S1132B20B9F3009709F402C1136000C131E0E31A5C
S1132B30F10839F439821A821D821E821C861B8791
S1132B4006C0329122912E32310581F7F3CF8C01E8
S1132B500F5F1F4F880F991FF501E80FF91F808140
S1132B609181009709F484C08032910531F08E324E
S1132B70910541F40E151F0529F04B8543604B87E1
S1132B80C801E5CFAD81BE81E981FA81AE17BF07E7
S1132B9020F40E151F0539F5E2C029813A812B3046
S1132BA0310549F41B851360D6015C968C91853EF2
S1132BB009F074C064C00E151F0539F0BB85B360FD
S1132BC0BB87E016F10608F453C0EC85EE0FEE0F58
S1132BD0EC87C701FF81F98328852A8339853D83E2
S1132BE04A854E83B4CF8038910508F4AAC060E0CA
S1132BF070E00E942A05009709F4B8C0FC01E15670
S1132C00FE4F4081842F90E05B8552605B87009784
S1132C1071F099C04B32510551F0ECE0F2E0219192
S1132C20222309F492C030E024173507C1F7EB855D
S1132C30E360EB878FE590E00EC0FC85F260FC87D3
S1132C400AC09C01215631092A31310520F42C8512
S1132C5021602C878097ED81FE81EC0DFD1D848F12
S1132C60C8014D815E814F5F5F4F5E834D836FCF9F
S1132C701B85D6015C968C91853E39F403C0BBE07C
S1132C80B9831A8225E0F601248F49815A8148309C
S1132C90510521F45C85550F550F5C878C858C702C
S1132CA08C3021F09C859370933009F4126011FDEF
S1132CB008C09C859370913009F41061843009F444
S1132CC01860D60197961C93C6010E941B0DF6014D
S1132CD097A1882351F002C086E04CC0843009F0EB
S1132CE049C092FD47C085E045C092FD43C0848140
S1132CF084FF0EC0668577857170680D791D8B81A0
S1132D009C81FADDF601668377838087918765CE9F
S1132D1085E030C0E12CF12C21E030E0620E731E1E
S1132D2014E0CBCED5011D921C92D6CFFA01329776
S1132D30EA0DFB1D208131812E32310509F4FACED2
S1132D40F5CEAC0167CF50E065CF9C012154310929
S1132D502A31310508F471CF74CF86E00BC0E981C4
S1132D60FA813B9709F031CF1B851DCFFB85F260BB
S1132D70FB875DCF2C960FB6F894DEBF0FBECDBF98
S1132D80DF91CF911F910F91FF90EF90DF90CF9043
S1132D90BF90AF909F908F907F906F905F904F9077
S1132DA03F902F9008951F93CF93DF9300D000D0CE
S1132DB0CDB7DEB79C838B837E836D83142F7A8398
S1132DC06983CE0101960E94F40599232CF1FC013C
S1132DD0EE0FFF1FE054FA4F0190F081E02D309781
S1132DE009F01082EB81FC813097E1F010822B8195
S1132DF03C81880F991FFC01E054FA4F31832083F2
S1132E00232B61F0113061F440E0BE016D5F7F4F10
S1132E10CE01059628DA0EC08BE00CC080E00AC013
S1132E2080E008C0880F991FFC01E054FA4F11821A
S1132E30108280E026960FB6F894DEBF0FBECDBF99
S1132E40DF91CF911F9108952F923F924F925F92FD
S1132E506F927F928F929F92AF92BF92CF92DF92A6
S1132E60EF92FF920F931F93CF93DF93CDB7DEB70B
S1132E70E2970FB6F894DEBF0FBECDBF7AAB69AB55
S1132E80009709F442C1142F7C01842F8F73D82E2C
S1132E90482FBE01615D7F4FCE01C196E4D98111F7
S1132EA030C18FA598A99A83898369A97AA9CE018B
S1132EB0019644DD81112BC188A588230CF030C113
S1132EC02AC1843009F054C1CE0101960E948C0EAF
S1132ED09D2D9860D92E882339F013C18D8181717D
S1132EE009F06FC112FD6FC1D3FE68C00E94812337
S1132EF0EB8DFC8D6687872E982EA92EBB248786A2
S1132F002C0166247724408A092F1127222733278E
S1132F10018BEB8DFC8D668B878A408E018FEB8D48
S1132F20FC8D80E28387AB8CBC8C0FA518A9B501FE
S1132F30C801E2DC2B013C0120E030E0A901B5012D
S1132F40C8010E947F08EB8DFC8D148E158E168EA1
S1132F50178EEFA5F8A981E083834114510461041D
S1132F60710449F185A496A4A7A4B0A800E010E0D8
S1132F709801B301A201CE0101960E94510B811167
S1132F80C0C0B501A4018FA598A90E94BD06EFA5F4
S1132F90F8A991E0491A51086108710845865686D6
S1132FA06786708A882339F0ACC011FF02C080FDA7
S1132FB00CC113FF03C0ED2DE064DE2EEFA5F8A9CC
S1132FC085A596A5A7A5B0A9F701848F958FA68F8F
S1132FD0B78F8B8D9C8D91A380A3AB8CBC8C0FA5DC
S1132FE018A9B501C80188DCF70166837783808757
S1132FF09187C5014C960E949505F70162877387F6
S11330008487958711830083F80185819681F70170
S113301093838283D6861786108E118E128E138E1A
S1133020108A118A128A138A1701F2E22F0E311CB8
S1133030F101C7018E5D9D4F1192E817F907E1F781
S1133040D5FE8FC0F701428453846484758441148F
S113305051046104710409F484C0408A518A628A6B
S1133060738AF80181859285A0E0B0E04C015D018E
S1133070072E79E0880C991CAA1CBB1C7A95D1F701
S1133080702DF701468157816085718584149504FC
S1133090A604B70408F056C0C7010E948C08AB010F
S11330A0BC01423051056105710508F074C081C04E
S11330B0CFA4D8A8C6010E94BE056115710581057B
S11330C0910509F450C0930182010F2EF9E0369561
S11330D0279517950795FA95D1F7F02DA901980131
S11330E0260F371F481F591FF701208F318F428F3A
S11330F0538F01E0B101F601818134D7811135C0CC
S113310030C0F7011182108264C089E062C0412F8F
S11331104C7159F0D6CE412F4C7149F586E005C06B
S1133120812F8C7109F0DACE27C08111EACF55CFF7
S11331308FEF9FEFDC01F701848B958BA68BB78B08
S113314081E0DFCFF701448B558B668B778BD301FE
S1133150C2019170AA27BB27892B8A2B8B2B09F0DC
S1133160A7CF80E036C082E0CCCF81E0CACF86E032
S1133170FD2DF860DF2ED9CF8D8184FD28C015CFB9
S1133180481859086A087B0884149504A604B704EF
S113319008F482CFD7CF4F3F8FEF580768077807DF
S11331A079F7C6CFF701448B558B668B778B82E01A
S11331B0A8CF4F3FFFEF5F076F077F0709F4B8CF32
S11331C0F1CF87E09ECF88E09CCF87E09ACF84E060
S11331D098CFE2960FB6F894DEBF0FBECDBFDF9155
S11331E0CF911F910F91FF90EF90DF90CF90BF9000
S11331F0AF909F908F907F906F905F904F903F9093
S11332002F9008952F923F924F925F926F927F92E8
S11332108F929F92AF92BF92CF92DF92EF92FF92E2
S11332200F931F93CF93DF93CDB7DEB728970FB6D5
S1133230F894DEBF0FBECDBF7C014B016A0159017A
S1133240F901118210828D83FE82BE016F5F7F4F70
S11332500E942B0681113AC1F7018785811136C17D
S1133260868580FF30C182859385A485B585408994
S1133270518962897389841B950BA60BB70BA60130
S113328060E070E084179507A607B70708F46C019F
S1133290C114D10409F419C1C701829698878F8398
S11332A0F70180899189A289B389AC01BD0151706C
S11332B066277727452B462B472B09F0D3C0E98196
S11332C0FA810185128501501109AC01BD01032E5B
S11332D039E076956795579547953A95D1F7302D0E
S11332E0042315230115110559F5892B8A2B8B2BE2
S11332F031F4F701668177818085918509C0F701F2
S113330044895589668977898D819E810E948C08BC
S1133310623071058105910520F482E0F701878709
S1133320D5C06F3FFFEF7F078F079F0721F481E030
S1133330F7018787CBC0F701648B758B868B978BDE
S113334089819A819C838B83F70144895589668995
S113335077890E94BE05611571058105910521F4E7
S113336082E0F7018787B2C02B013C01400E511E59
S1133370611C711C1601232C33242694211431045E
S113338009F43EC0EB81FC81818592859801220D70
S1133390331D8217930718F41C01201A310A022DD9
S11333A0A3019201B401EB81FC818181DBD58823E7
S11333B021F081E0F701878789C0F701868588239A
S11333C0DCF4808D918DA28DB38D84199509A609A5
S11333D0B709A10160E070E084179507A607B70755
S11333E058F4982F8827990F40E052E06F81788530
S11333F0880D991D0E94B005322C2224330C47C03D
S1133400F701208D318D428D538D4216530664068B
S1133410750619F1868588238CF401E06F8178851F
S1133420EB81FC818181EBD5882321F081E0F701D8
S113343087874CC0F70186858F778687E981FA8173
S113344001E0A30192016F81788581818BD5882366
S113345021F081E0F701878739C0F701408E518E52
S1133460628E738EF70160897189717080E092E0D9
S11334701C01261A370AC214D30408F416018F81DA
S11334809885680F791FA101C4010E94B005820CC0
S1133490931CF70180899189A289B389820D931DB8
S11334A0A11DB11D808B918BA28BB38BF501808103
S11334B09181820D931D91838083C218D30809F0F2
S11334C0EFCE80E003C087E001C080E028960FB60D
S11334D0F894DEBF0FBECDBFDF91CF911F910F9146
S11334E0FF90EF90DF90CF90BF90AF909F908F9020
S11334F07F906F905F904F903F902F9008952F9200
S11335003F924F925F926F927F928F929F92AF926F
S1133510BF92CF92DF92EF92FF920F931F93CF93BC
S1133520DF93CDB7DEB729970FB6F894DEBF0FBE91
S1133530CDBF7C014B016A015901F901118210824E
S11335408F831F2DBE016F5F7F4F0E942B06811159
S11335508AC1F7018785811186C1868581FF82C171
S113356080899189A289B389AC01BD014C0D5D1D8F
S1133570611D711D481759076A077B0718F46C0110
S1133580C094D094C114D10409F466C197012E5D8E
S11335903F4F39872887F70180899189A289B389A8
S11335A0AC01BD01517066277727452B462B472B6D
S11335B009F00FC1E981FA8161847284F1E06F1A24
S11335C07108AC01BD01032E39E0769567955795D6
S11335D047953A95D1F7302D642275226114710410
S11335E009F049C0892B8A2B8B2B91F4F701668152
S11335F07781808591856115710581059105B9F4FF
S113360040E050E0BA018F81912F0E944F0A09C017
S1133610F70144895589668977898F81912F0E94A2
S11336204F0A611571058105910509F415C16130D1
S113363071058105910521F482E0F701878713C1A3
S11336406F3FFFEF7F078F079F0721F481E0F701AA
S1133650878709C1F701648B758B868B978B2681CD
S1133660378140855185232B242B252B21F4668318
S1133670778380879187F70186858823ACF4208D32
S1133680318D428D538DE981FA8101E06885798518
S11336908181B5D4882321F081E0F7018787E3C0D5
S11336A0F70186858F77868729813A813E832D832A
S11336B0F7014489558966897789C9010E94BE0545
S11336C0611571058105910521F482E0F701878771
S11336D0CAC01B012C01260C371C411C511C96012D
S11336E0232F332726953C832B832115310509F499
S11336F045C0ED81FE8181859285260D371D821797
S1133700930728F49C01261937093C832B830B81EA
S1133710A2019101B401ED81FE81818170D48823DD
S113372021F081E0F70187879EC0F701808D918D9C
S1133730A28DB38D82199309A409B5092B813C810B
S1133740A90160E070E084179507A607B70780F425
S1133750982F8827990FB401680F791F40E052E031
S1133760888599850E94B005F70186858F778687BD
S11337706B807C80762C6624770C44C0F701808DA6
S1133780918DA28DB38D281639064A065B06E1F0A9
S1133790408951896289738982859385A485B58519
S11337A0481759076A077B0778F401E0A2019101E1
S11337B068857985ED81FE818181D4D3882321F0C8
S11337C081E0F70187874FC0F701208E318E428E4A
S11337D0538EF70180899189917020E032E039019C
S11337E0681A790AC614D70408F43601A301B4018F
S11337F028853985820F931F0E94B005F7018685BD
S113380080688687860C971CF70180899189A28934
S1133810B389860D971DA11DB11D808B918BA28B41
S1133820B38B4285538564857585481759076A07A4
S11338307B0710F4AC01BD01F7014287538764870D
S11338407587F50180819181860D971D9183808311
S1133850C618D70809F09FCEF7018685806486874D
S113386080E001C087E029960FB6F894DEBF0FBE52
S1133870CDBFDF91CF911F910F91FF90EF90DF901B
S1133880CF90BF90AF909F908F907F906F905F90FC
S11338904F903F902F900895EF92FF920F931F93B4
S11338A0CF93DF931F921F92CDB7DEB7FC01228125
S11338B0338133236CF18C017901FFEFEF1AFF0A96
S11338C0FC01E20FF31F66838DE3E816F104C4F0F4
S11338D09E012F5F3F4FA701B8016A5F7F4FF80138
S11338E0808191810CDE81E090E029813A812E155E
S11338F03F0511F480E090E0EE24FF24E81AF90A71
S1133900F801F382E2828481958101969583848310
S11339100F900F90DF91CF911F910F91FF90EF9037
S113392008950F931F93CF93DF931F921F92CDB7E8
S1133930DEB7FC01428153815523BCF08C01BC01EC
S11339406A5F7F4F9E012F5F3F4F80819181D7DD5A
S113395081110EC0F8012281338189819A8128174F
S1133960390749F48481958108C08FEF9FEF05C022
S11339708FEF9FEF02C08FEF9FEF0F900F90DF91BB
S1133980CF911F910F910895AF92BF92CF92DF9282
S1133990EF92FF920F931F93CF93DF931F921F9287
S11339A0CDB7DEB77C01BE016F5F7F4F0E942B064F
S11339B0811158C0F701868586FF51C0882394F48D
S11339C0208D318D428D538DE981FA8101E0B7015B
S11339D06E5D7F4F818113D3811143C0F7018685CA
S11339E08F7786878ED6A62EB72EC82ED92EF701AE
S11339F0448D558D668D778D89819A810E94BD068F
S1133A00811130C0F70100A111A1F8018385806202
S1133A108387F7012681378140855185B8018081EC
S1133A2091810E947F08F7013285238594858585DD
S1133A30F801348F258F968F878FA68AB78AC08E18
S1133A40D18E128A138A89819A8121E0FC01238311
S1133A500E94F606F70196859F7B968703C080E057
S1133A6001C081E00F900F90DF91CF911F910F91D2
S1133A70FF90EF90DF90CF90BF90AF9008950F9399
S1133A801F93CF93DF931F921F92CDB7DEB78C01A4
S1133A907BDF81110BC0BE016F5F7F4FC8010E94A5
S1133AA02B06811103C0F801118210820F900F9030
S1133AB0DF91CF911F910F9108958F929F92AF92B2
S1133AC0BF92CF92DF92EF92FF920F931F93CF9307
S1133AD0DF9300D01F92CDB7DEB7882E992E5A01FE
S1133AE0082F192FE12CF12C6B0181E0C81AD108A1
S1133AF01AC09E012D5F3F4F41E050E0BE016F5F51
S1133B007F4FC5017FDB2B813C812130310571F46E
S1133B1029810F5F1F4FF80131972083EFEFEE1AD1
S1133B20FE0A2A3019F0EC14FD041CF3F80110828B
S1133B30EF2819F0882D992D02C080E090E00F90B5
S1133B400F900F900F90DF91CF911F910F91FF90E5
S1133B50EF90DF90CF90BF90AF909F908F9008959B
S1133B600F931F93CF93DF93CDB7DEB7C654D1091C
S1133B700FB6F894DEBF0FBECDBF7A8369831C8273
S1133B801B821E821D82FC016081662359F08C0118
S1133B900F5F1F4FCE0101967FDEF80161918F0107
S1133BA06111F8CFCE010196BCDECA5BDF4F0FB6C0
S1133BB0F894DEBF0FBECDBFDF91CF911F910F915F
S1133BC008958FEF8EBD0DB407FEFDCF8EB5089519
S1133BD082E38093C305F5DFF4DF8F3F39F08091F2
S1133BE0C3058111F9CF80E090E0089581E090E071
S1133BF00895289AE6CF0895CF93DF932898E8DFB5
S1133C00EC01892B11F4F5DF02C0C1E0D0E0CE0154
S1133C10DF91CF9108950F931F93CF93DF93082FD4
S1133C20192FEB0184E18093C405CBDF8F3F39F476
S1133C308091C4058111F9CF80E090E02EC08E3FC1
S1133C4051F5E02FF12F8FEF8EBD0DB407FEFDCFA0
S1133C509EB5DF0190838EBD0DB407FEFDCF9EB5EA
S1133C6011969C9311978EBD0DB407FEFDCF9EB5A2
S1133C7012969C9312978EBD0DB407FEFDCF9EB590
S1133C8013969C93249734962097F1F69ADF99DF44
S1133C9081E090E002C080E090E0DF91CF911F913D
S1133CA00F9108950F931F93CF938C01C62F90DF2C
S1133CB0009779F1CEBD0DB407FEFDCFCD3F39F1AC
S1133CC0F80198013E5FDF0180818EBD0DB407FECF
S1133CD0FDCF11968C918EBD0DB407FEFDCF3296AB
S1133CE0E217F30781F78FEF8EBD0DB407FEFDCF0A
S1133CF08FEF8EBD0DB407FEFDCF63DF8F7131E012
S1133D0020E0853009F030E0832F922F02C081E05B
S1133D1090E0CF911F910F910895CF92DF92EF928F
S1133D20FF92CF93C82F6A017B0188234CF440E0B3
S1133D3050E0BA0187E3F1DF823008F03EC0CF776C
S1133D4058DF5ADF892BC1F18C2F80648EBD0DB4EE
S1133D5007FEFDCF8F2D9927AA27BB278EBD0DB453
S1133D6007FEFDCFC701AA27BB278EBD0DB407FEF2
S1133D70FDCFBB27AF2D9E2D8D2D8EBD0DB407FE1F
S1133D80FDCFCEBC0DB407FEFDCFCC2321F0C8304F
S1133D9021F487E803C085E901C081E08EBD0DB43C
S1133DA007FEFDCFCC3009F40CDFCAE00ADF88231C
S1133DB024F4C150D9F701C08FEFCF91FF90EF9059
S1133DC0DF90CF900895CF92DF92EF92FF920F93FE
S1133DD01F93CF93DF9300D01F92CDB7DEB781112D
S1133DE0A2C08091010281FF03C080910102A6C09C
S1133DF082E084BD95E095BD9CE997BD80936E00FB
S1133E0084B1876084B982E58CBD8CB582608CBD39
S1133E101AE0D7DE1150E9F740E050E0BA0180E043
S1133E207CDF813009F086C084E68093C4054AEAC9
S1133E3051E060E070E088E070DF813009F03BC061
S1133E40CE0101966C017E0195E0E90EF11C86011C
S1133E50B8DEF80181938F01EE16FF06C9F78B8156
S1133E60813009F067C08C818A3A09F063C080917F
S1133E70C405882341F040E050E060E070E489EA42
S1133E804CDF8111F4CF8091C405882309F452C01A
S1133E9040E050E0BA018AE340DF81114BC091DE7B
S1133EA0F60181936F01EE16FF06C9F7898186FD3D
S1133EB03CC084E03BC040E050E0BA0189EA2DDF19
S1133EC0823018F001E011E002C002E019EA8091AA
S1133ED0C405882339F040E050E0BA01812F1DDF8A
S1133EE08111F5CF8091C405882321F140E052E08F
S1133EF060E070E080E111DF81111CC00093C20515
S1133F0078DE002349F0809101028E7F80930102C4
S1133F108CB58C7F8CBD04C01CBC84B1887F84B9F3
S1133F20809101020BC081E009C08CE08093C2053E
S1133F3060DEE9CF1092C2055CDEEECF0F900F90E9
S1133F400F900F90DF91CF911F910F91FF90EF9001
S1133F50DF90CF900895811103C0809101020895EC
S1133F6081E008950F93CF93DF93EB0181113EC05D
S1133F70002309F43DC08091010280FD3BC0809183
S1133F80C20583FD09C0012E19E0220F331F441F0F
S1133F90551F1A95D1F7102D013071F4BA01A901FA
S1133FA081E1BBDE81111CC060E072E0CE0133DE32
S1133FB0892BB1F000E014C0BA01A90182E1ADDEA1
S1133FC081110EC060E072E0CE0125DE892B19F06C
S1133FD0DE5F0150B9F740E050E0BA018CE09DDEAD
S1133FE008DE81E0011107C080E005C084E003C061
S1133FF084E001C083E0DF91CF910F910895CF92C7
S1134000DF92EF92FF920F93CF93DF93EB0169015D
S11340107A0181114AC0002309F449C08091010248
S113402080FD47C08091010282FD45C08091C20598
S113403083FD09C00B2EB9E0CC0CDD1CEE1CFF1C6B
S1134040BA95D1F7B02D013069F4B701A60188E122
S113405064DE811124C06EEFCE0124DE892BF9F0D9
S113406000E01DC0867031F0402F50E060E070E049
S113407087E953DEB701A60189E14FDE81110FC044
S11340806CEFCE010FDE892B19F0DE5F0150C1F712
S11340906DEF80E090E006DE892B09F401E0A9DDF4
S11340A081E0011109C080E007C084E005C084E01C
S11340B003C083E001C082E0DF91CF910F91FF90B4
S11340C0EF90DF90CF900895EF92FF920F931F939C
S11340D0CF93DF93CDB7DEB760970FB6F894DEBF0A
S11340E00FBECDBF811188C1653091F4FA01808182
S11340F0882319F0813039F081C11CBC84B1887FD8
S113410084B980E07EC181E0FA01818380E079C1D5
S11341108091010280FD74C18A01862F90E08F3066
S1134120910508F04FC1FC018827EE58FF4F8F4FCF
S11341300C94A22961DD892B09F446C15ADD10E0F3
S113414058C140E050E0BA0189E0E7DD81113EC189
S113415060E170E0CE0101965EDD892B09F438C17F
S1134160898182958695869583708130D9F4898575
S113417090E0382F22278A8590E00196820F931FC2
S1134180A0E0B0E0072E7AE0880F991FAA1FBB1F9A
S11341907A95D1F7702DF80180839183A283B3833C
S11341A010E027C1298522952695269523708885B8
S11341B0F4E08F9FC0011124820F911D9C012F5F99
S11341C03F4F8F81837090E0982F8827990F990F24
S11341D0820F931FA0E0B0E03E813F702B85221F29
S11341E02227221F320F2A852370220F230F2750E4
S11341F004C0880F991FAA1FBB1F2A95D2F7F80184
S113420080839183A283B38310E0F3C080E092E0C3
S1134210FA019183808310E0ECC0F090C205F2FEB5
S11342202DC040E050E0BA018DE877DD8111D2C0A5
S1134230C8DC60E170E0CE010196EDDC892B09F465
S1134240CBC00F2EF0E3FF2EF02DBBDCFA94F1105F
S1134250FCCF2B8522952F7080E190E0A0E0B0E0A8
S113426004C0880F991FAA1FBB1F2A95D2F7F80113
S113427080839183A283B38310E0BBC040E050E00D
S1134280BA0189E04ADD8111A9C060E170E0CE0184
S11342900196C1DC892B09F4A3C0F1FE20C02B8553
S11342A02F738C85881F8827881F90E00196820FC2
S11342B0911D820F911D2E8522952695269523709A
S11342C0215002C0880F991F2A95E2F7A0E0B0E0C0
S11342D0F80180839183A283B38310E08AC08C8524
S11342E0282F237082958695877090E0F8E02F9FA1
S11342F0800D911D112401962B852C7730E0359586
S11343002795359527952F5F3F4F829FA001839F67
S1134310500D929F500D1124CA01A0E0B0E0F801A5
S113432080839183A283B38310E063C08091C2052C
S1134330FA01808310E05DC040E050E0BA0189E0FA
S1134340ECDC81114FC060E170E0C80164DC11E075
S1134350892B09F44EC010E04CC040E050E0BA0193
S11343608AE0DBDC811140C060E170E0C80153DC0D
S113437011E0892B09F43DC010E03BC040E050E05F
S1134380BA018AE3CADC811131C078010C5F1F4F86
S113439018DCF70181937F010E171F07C9F710E09E
S11343A028C040E050E0BA018DE8B7DC811120C09C
S11343B008DC60E470E0C8012EDC11E0892BC9F050
S11343C010E017C014E015C011E013C011E011C0D3
S11343D011E00FC011E00DC011E00BC011E009C0E5
S11343E011E007C011E005C011E003C011E001C0F5
S11343F011E0FFDB812F05C084E003C084E001C02D
S113440083E060960FB6F894DEBF0FBECDBFDF9198
S1134410CF911F910F91FF90EF9008958091C40563
S1134420882319F081508093C4058091C3058823A3
S113443019F081508093C30580910102897F809394
S1134440010208951F920F920FB60F9211240BB61A
S11344500F922F933F934F935F936F937F938F9319
S11344609F93AF93BF93EF93FF93D8DFFF91EF91A7
S1134470BF91AF919F918F917F916F915F914F9178
S11344803F912F910F900BBE0F900FBE0F901F9076
S11344901895BC0180E89EE30CD7862F603148F064
S11344A0772760517109CB0199230CF401969595F6
S11344B087958093B800089584EA8093BC00ECEB60
S11344C0F0E080818823ECF7089584E98093BC00B0
S11344D0ECEBF0E0808184FDFDCF08958093BB0078
S11344E084E88093BC00ECEBF0E080818823ECF757
S11344F0089520E4829FC001112484688093BC0045
S1134500ECEBF0E080818823ECF78091BB00089508
S1134510EF92FF920F931F93CF93DF93182FD62F11
S1134520C42F7901C9DF812FD9DF8D2FD7DF8FEF1A
S11345308C0FCC2361F0E701082F10E00F5F1F4FB1
S11345400E0D1F1D8991CADFC017D107D9F7BDDF32
S1134550DF91CF911F910F91FF90EF900895EF920B
S1134560FF920F931F93CF93DF93C82F162FD42F4F
S1134570E22EF32EA1DF8C2FB1DF812FAFDF9CDF82
S113458081E08C0FABDFCFEFCD0FDD2381F00E2D5B
S11345901F2DD1E0F12C8D2FC11101C08F2DA9DF6A
S11345A0F80181938F018C2FC1508111F4CF8DDFDD
S11345B0DF91CF911F910F91FF90EF90089575981F
S11345C00895CF93DF93EC0181E028D461E081E08A
S11345D05FD440E063E081E03AD4CE01099680D50F
S11345E06AE081E055D4CE0142967AD5DF91CF912D
S11345F00895759A8BE49AE00E94740342E36FE98C
S113460072E086EF97E00E94241781110DC025E027
S11346103CE04BE050E06DE57AE086EF97E00E94E5
S11346207F1A86EF97E02BDA42E36FE972E086EFB8
S113463097E00E94241781110DC025E03CE049E079
S113464050E064E57AE086EF97E00E947F1A86EFF7
S113465097E015DA42E36FE972E086EF97E00E9493
S1134660241781110DC025E03CE042E050E063E9ED
S113467073E086EF97E00E947F1A86EF97E0FFC908
S11346800895749A66C4089574988BE49AE00E941D
S1134690740356C408950F931F93CF93DF9341E09F
S11346A06FE972E086EF97E00E942417882381F077
S11346B023C0402F512F60E971E082E79AE0FDD9D1
S11346C0892B51F081E0AAD382E79AE009D504C08E
S11346D0C6EFD7E00C2F1D2F488959896A897B8939
S11346E08A859B85AC85BD85481759076A077B0772
S11346F001F786EF97E0C3D9DF91CF911F910F9116
S113470008950F931F9386E29AE00E947403E6E2F1
S1134710FAE0858190E0A0E0B0E0072E75E1880F13
S1134720991FAA1FBB1F7A95D1F7702D2681A22B42
S1134730408150E060E070E0032E3BE0440F551FE1
S1134740661F771F3A95D1F7302D842B952BA62B16
S1134750B72B418150E060E070E0440F551F661FA5
S1134760771F440F551F661F771F440F551F661F81
S1134770771F440F551F661F771F440F551F661F71
S1134780771F842B952BA62BB72B22812695822B62
S1134790438154814C5B574060E070E0032E39E163
S11347A0440F551F661F771F3A95D1F7302D8C01A2
S11347B09D01042B152B262B372BC901B8011F9102
S11347C00F910895279A91D387E690E062D490D30D
S11347D0A6D389EF92E275D38FED92E277D381E489
S11347E093E279D384E493E27BD38BE493E244D0E1
S11347F00E94340381EE92E20E942F030F2EF7E30E
S1134800CF2EF02D0F2EFBE3EF2EF02D07E12FE13D
S11348104CE063EE77E086E29AE00E94090580E0CE
S1134820D2DA8093040C41E069EA72E085EC95E009
S11348300E94D3168093040C42E36FE972E086EF82
S113484097E00E942417811108C066EF77E08BEA95
S113485092E086D986EF97E012D91092030C109259
S1134860020C1092710A1092700A2F9878940E9488
S11348704C0478D30BD2FBCF9093190A8093180A77
S1134880089561E083E004D381E0C8D240E064E0AD
S113489081E0DDD282EB92E023D461E084E0F8D2BF
S11348A08DEB92E01DD461E085E0F2D28BEC92E0D6
S11348B017C4089561E082E0EBD281E0AFD240E01A
S11348C064E081E0C4D28CEE92E00AD480E093E00C
S11348D007D480E193E004D480E293E001C4089516
S11348E061E082E0D5D281E099D240E064E081E0E9
S11348F0AED28AE293E0F4D380E293E0F1C3089568
S1134900CF93DF9300D000D0CDB7DEB7CE010196B0
S11349106BD489819A818233910551F08534910554
S113492061F0C19779F480E083D281E090E00CC01B
S113493080E07ED282E090E007C080E079D283E01C
S113494090E002C080E090E026960FB6F894DEBFB7
S11349500FBECDBFDF91CF9108950F931F93CF93D7
S1134960DF9300D0CDB7DEB780E062D261E081E0B2
S11349708FD240E064E081E06AD28AE493E0B0D36D
S113498088E593E0ADD380E049D28ED42FEF83ED58
S113499090E3215080409040E1F700C00000CE0138
S11349A0019622D42FEF83ED90E321508040904074
S11349B0E1F700C00000CE010196E5D4182F6AE0AB
S11349C070E090E0ADD3193110F4812F01C080E084
S11349D00F900F900F90DF91CF911F910F91089539
S11349E00F931F93CF93DF9300D0CDB7DEB780E052
S11349F01FD261E081E04CD240E064E081E027D244
S1134A008EE593E06DD38BE693E06AD380E006D223
S1134A104BD42FEF83ED90E3215080409040E1F799
S1134A2000C00000CE010196DFD32FEF83ED90E3A9
S1134A30215080409040E1F700C00000CE01019673
S1134A40A2D4182F6AE070E090E06AD31D3310F40A
S1134A50812F01C080E00F900F900F90DF91CF91D4
S1134A601F910F9108950F931F93CF93DF9300D05D
S1134A70CDB7DEB780E0DCD161E081E009D240E06F
S1134A8064E081E0E4D181E793E02AD38FE793E007
S1134A9027D380E0C3D108D42FEF83ED90E32150D6
S1134AA080409040E1F700C00000CE0101969CD305
S1134AB02FEF83ED90E3215080409040E1F700C058
S1134AC00000CE0101965FD4182F6AE070E090E0F8
S1134AD027D31D3310F4812F01C080E00F900F9075
S1134AE00F90DF91CF911F910F9108950F931F9312
S1134AF0CF93DF9300D0CDB7DEB780E099D161E0EA
S1134B0081E0C6D140E064E081E0A1D185E893E092
S1134B10E7D28FE893E0E4D280E080D1C5D32FEFD1
S1134B2087EA91E6215080409040E1F700C0000000
S1134B30CE01019659D32FEF83ED90E321508040AD
S1134B409040E1F700C00000CE0101961CD4182F5C
S1134B506AE070E090E0E4D2103210F4812F01C0DA
S1134B6081E00F900F900F90DF91CF911F910F91E3
S1134B7008950F931F93CF93DF9300D0CDB7DEB783
S1134B8080E056D161E081E083D140E064E081E0DF
S1134B905ED185E993E0A4D284EA93E0A1D280E0D7
S1134BA03DD182D32FEF87EA91E621508040904097
S1134BB0E1F700C00000CE01019616D32FEF83ED7C
S1134BC090E3215080409040E1F700C00000CE0106
S1134BD00196D9D3182F6AE070E090E0A1D21D307D
S1134BE010F4812F01C081E00F900F900F90DF919E
S1134BF0CF911F910F9108950F931F93CF93DF933C
S1134C0000D000D0CDB7DEB780E012D161E081E002
S1134C103FD140E064E081E01AD18AEA93E060D2B7
S1134C2084EB93E05DD280E0F9D03ED32FEF8BE7A5
S1134C3092E9215080409040E1F700C00000CE018D
S1134C400196D2D22FEF83ED90E321508040904023
S1134C50E1F700C00000CE01019695D38C016AE013
S1134C6070E05ED20F3E27E0120718F4802F912FD8
S1134C7002C080ED97E026960FB6F894DEBF0FBE13
S1134C80CDBFDF91CF911F910F9108950F931F9383
S1134C90CF93DF938091020C9091030C81309105A6
S1134CA021F0029709F49FC0AEC004DE29DE909380
S1134CB0710A8093700A8230910509F446C08330EA
S1134CC0910509F480C0019709F088C046DEC82F19
S1134CD06AE070E090E024D22FEF83ED90E321505E
S1134CE080409040E1F700C000007ADED82F6AE0EF
S1134CF070E090E015D22FEF83ED90E321508040D7
S1134D009040E1F700C00000AEDE182F6AE070E0CA
S1134D1090E006D22FEF83ED90E321508040904045
S1134D20E1F700C00000212F4D2F6C2F86E29AE09E
S1134D300E9457031092030C1092020C1092710AF5
S1134D401092700A80E074D064C0D0DE082F6AE04C
S1134D5070E090E0E5D12FEF83ED90E321508040A7
S1134D609040E1F700C0000004DF182F6AE070E013
S1134D7090E0D6D12FEF83ED90E321508040904016
S1134D80E1F700C0000038DFEC016AE070E0C8D150
S1134D902FEF83ED90E3215080409040E1F700C075
S1134DA00000202F412FBE0186E29AE00E94CD042C
S1134DB01092030C1092020C1092710A1092700A55
S1134DC080E036D026C01092710A1092700A1092B8
S1134DD0030C1092020C80E02BD01BC01092710ABD
S1134DE01092700A16C07CDDE091180AF091190A3D
S1134DF0309709F0199584DD039759F41092030C48
S1134E001092020C06C03DDD7BDD9093030C809371
S1134E10020CDF91CF911F910F910895882321F007
S1134E208DEC95E06CC1089586EC95E068C1089519
S1134E30CF93C82F82EC95E062D18C2FEFDF89ED00
S1134E4095E05DD184ED95E05AD1CF9108951F93FB
S1134E50CF93DF93182FD62FC42F8BE129D18BE565
S1134E6027D180E3810F24D18BE322D183E320D1A6
S1134E7080E38D0F1DD18BE31BD184E319D180E333
S1134E808C0F16D18DE614D1DF91CF911F91089527
S1134E90CF93DF93D82FC62F8BE10AD18BE508D1AE
S1134EA06AE070E08D2F90E03BD18BE301D16AE0A2
S1134EB070E08C2F90E034D188E4FAD0DF91CF9168
S1134EC008959093250A8093240A08959093230AC1
S1134ED08093220A08959093210A8093200A0895CA
S1134EE090931F0A80931E0A08956D9A6C9A0895F0
S1134EF0269824982E9A2C9AE0EBF0E08081826028
S1134F008083E1EBF0E08081856080838CE980938D
S1134F10B300E0E7F0E08081826080830895E4E0FC
S1134F20F1E0808182608083808181608083E5E01C
S1134F30F1E080818D7F808380818E7F80830895DE
S1134F40E5E0F1E080818260808380818E7F8083D0
S1134F500895E5E0F1E080818D7F808380818E7FFC
S1134F608083089580914A0A81110AC082E0809367
S1134F704A0AE091240AF091250A309709F019951C
S1134F8080914A0A813051F483E080934A0AE09187
S1134F90220AF091230A309709F0199580916F0A3B
S1134FA081110AC082E080936F0AE091200AF09197
S1134FB0210A309709F0199580916F0A813051F4D4
S1134FC083E080936F0AE0911E0AF0911F0A3097E4
S1134FD009F0199508951F920F920FB60F9211249C
S1134FE08F931E9B13C080911D0A8F5F843618F423
S1134FF080931D0A1FC010921D0A10921C0A8091F2
S11350004A0A8330B9F410924A0A14C01E9912C095
S113501080911C0A8F5F80931C0A843658F010928A
S11350201D0A10921C0A80914A0A823019F481E008
S113503080934A0A1C9B13C080911B0A8F5F84369D
S113504018F480931B0A1FC010921B0A10921A0AAC
S113505080916F0A8330B9F410926F0A14C01C99BE
S113506012C080911A0A8F5F80931A0A843658F00E
S113507010921B0A10921A0A80916F0A823019F456
S113508081E080936F0A8F910F900FBE0F901F9055
S113509018959093C5008093C400E1ECF0E088E19A
S11350A080838EE08093C200808188698083089524
S11350B09FB7F8942091060C2F5F2F789FBF909193
S11350C0080C2917E1F3E22FF0E0E75FF34F808348
S11350D02093060CE1ECF0E08081806280830895E7
S11350E0CF93DF93EC012196FC018081882321F08A
S11350F0DFDF89918111FCCFDF91CF910895CF93A8
S1135100DF93EC012196FC018491882331F0D0DFF8
S1135110FE01849121968111FACFDF91CF910895F8
S1135120CF93DF93CDB7DEB761970FB6F894DEBFA8
S11351300FBECDBFAB01BE016F5F7F4F41D1CE012A
S11351400196CEDF61960FB6F894DEBF0FBECDBFD9
S1135150DF91CF9108951F920F920FB60F921124F1
S11351600BB60F928F939F93EF93FF939091060C3E
S11351708091080C981779F08091080C8F5F8F78D4
S11351808093080CE091080CF0E0E75FF34F808116
S11351908093C60005C0E1ECF0E080818F7D8083C0
S11351A0FF91EF919F918F910F900BBE0F900FBEC7
S11351B00F901F9018959091990D80919A0D9817C2
S11351C081F02FB7F89480919A0D8F5F80939A0D98
S11351D0E0919A0DF0E0E556F24F808190E02FBF08
S11351E008958FEF9FEF0895EF92FF920F931F930F
S11351F0CF93DF93E82EF92E8091070C8823A9F032
S1135200CE2DD92F06C08D30910541F0F801808351
S113521021968E01D0DF18161906ACF3F80110821E
S11352208091070C81508093070C8E2D9F2DDF9168
S1135230CF911F910F91FF90EF9008951F920F92BD
S11352400FB60F9211240BB60F928F939F93EF9387
S1135250FF938091C600E091990DEF5F90919A0DB4
S1135260E91305C080919A0D8093990D12C08A307C
S113527081F08D3019F0811106C00BC09091070C9C
S11352809F5F9093070CE093990DF0E0E556F24F81
S11352908083FF91EF919F918F910F900BBE0F90A0
S11352A00FBE0F901F90189580919A0D8093990DC1
S11352B00895AA1BBB1B51E107C0AA1FBB1FA61759
S11352C0B70710F0A61BB70B881F991F5A95A9F7AB
S11352D080959095BC01CD01089597FB072E16F497
S11352E0009406D077FD08D0E4DF07FC05D03EF437
S11352F0909581959F4F0895709561957F4F08957E
S1135300A1E21A2EAA1BBB1BFD010DC0AA1FBB1FC5
S1135310EE1FFF1FA217B307E407F50720F0A21B37
S1135320B30BE40BF50B661F771F881F991F1A94A4
S113533069F760957095809590959B01AC01BD01CE
S1135340CF010895EE0FFF1F881F8BBF0790F691C2
S1135350E02D1994A29FB001B39FC001A39F700DCB
S1135360811D1124911DB29F700D811D1124911D69
S11353700895F0DFA59F900DB49F900DA49F800D1C
S1135380911D11240895FC0188279927E8942191FF
S11353902032E9F3293010F02E30C8F32B3239F0E3
S11353A02D3231F4689403C01FD0820F911D2191D6
S11353B020532A30C8F31EF4909581959F4F089589
S11353C04532510518F4423008F004C0FB01108244
S11353D0CB010895BB274A3031F4992322F4BDE26E
S11353E0909581959F4F09C07AE0979F902D879F54
S11353F0802D910D11240895BB27FB015527AA2761
S1135400880F991FAA1FA41710F0A41B839550514D
S1135410B9F7A05DAA3308F0A95DA193009779F7C5
S1135420B111B1931192CB0100C0DC01FC01672FD3
S113543071917723E1F7329704C07C916D93708367
S11154406291AE17BF07C8F30895F894FFCF2A
S113544E0101222A3A3C3E3F7C7F002B2C3B3D5BE4
S113545E5D0001030507090E10121416181C1E8098
S113546E9A90B68EDE8F809DD38A8AD78D8E8F903A
S113547E9191E29995959797999A9B9B9D9EACB520
S113548ED6E0E9A4A4A6A6A8A8AA8DACB8AEAFB0DF
S113549EB1B2B3B4B5B6B7B8B9BABBBCBDBDBFC073
S11354AEC1C2C3C4C5C6C6C8C9CACBCCCDCECFD162
S11354BED1D2D3D2D5D6D7B7D9DADBDCDDDEDFE075
S11354CEE1E2E3E3D5E6E6E8E9E8EBEDEDDDEFF066
S11354DEF1F2F3F4F5F6F7F8F9FAEBFCFCFEFF2F14
S11354EE504D494B2E545854002F00544553540DCF
S11354FE0A004D41494E204D454E553A00312E205D
S113550E557374617720637A617300322E20577954
S113551E73776965746C20706F70727A65646E69E6
S113552E65207A6461727A656E696100557374617F
S113553E772064617465206920637A61730D0A00B3
S113554E312E20557374617720637A61730D0A00CE
S113555E322E20557374617720646174650D0A00D0
S113556E457869743A20450D0A0057797377696551
S113557E746C20706F70727A65646E6965207A64DB
S113558E61727A656E69610D0A00577069737A20CB
S113559E676F647A696E79002068680D0A00577027
S11355AE69737A206D696E75747900206D6D0D0ABC
S11355BE00577069737A2073656B756E6479002079
S11355CE73730D0A00577069737A20646E69002034
S11355DE44440D0A00577069737A206D69657369C6
S11355EE61636500204D4D0D0A00577069737A2072
S10F55FE726F6B0020595959590D0A00B6
S9030000FC
